{
  "contractName": "TableFactory",
  "abi": [
    {
      "constant": false,
      "inputs": [],
      "name": "renounceOwnership",
      "outputs": [],
      "payable": false,
      "stateMutability": "nonpayable",
      "type": "function"
    },
    {
      "constant": true,
      "inputs": [
        {
          "name": "",
          "type": "uint256"
        }
      ],
      "name": "tables",
      "outputs": [
        {
          "name": "creationId",
          "type": "uint256"
        },
        {
          "name": "tableId",
          "type": "uint256"
        },
        {
          "name": "name",
          "type": "string"
        },
        {
          "name": "database",
          "type": "string"
        }
      ],
      "payable": false,
      "stateMutability": "view",
      "type": "function"
    },
    {
      "constant": true,
      "inputs": [],
      "name": "owner",
      "outputs": [
        {
          "name": "",
          "type": "address"
        }
      ],
      "payable": false,
      "stateMutability": "view",
      "type": "function"
    },
    {
      "constant": true,
      "inputs": [],
      "name": "isOwner",
      "outputs": [
        {
          "name": "",
          "type": "bool"
        }
      ],
      "payable": false,
      "stateMutability": "view",
      "type": "function"
    },
    {
      "constant": true,
      "inputs": [
        {
          "name": "",
          "type": "uint256"
        }
      ],
      "name": "tableToOwner",
      "outputs": [
        {
          "name": "",
          "type": "address"
        }
      ],
      "payable": false,
      "stateMutability": "view",
      "type": "function"
    },
    {
      "constant": false,
      "inputs": [
        {
          "name": "newOwner",
          "type": "address"
        }
      ],
      "name": "transferOwnership",
      "outputs": [],
      "payable": false,
      "stateMutability": "nonpayable",
      "type": "function"
    },
    {
      "anonymous": false,
      "inputs": [
        {
          "indexed": false,
          "name": "creationId",
          "type": "uint256"
        },
        {
          "indexed": false,
          "name": "name",
          "type": "string"
        },
        {
          "indexed": false,
          "name": "database",
          "type": "string"
        }
      ],
      "name": "NewTable",
      "type": "event"
    },
    {
      "anonymous": false,
      "inputs": [
        {
          "indexed": true,
          "name": "previousOwner",
          "type": "address"
        },
        {
          "indexed": true,
          "name": "newOwner",
          "type": "address"
        }
      ],
      "name": "OwnershipTransferred",
      "type": "event"
    }
  ],
  "bytecode": "0x6080604052336000806101000a81548173ffffffffffffffffffffffffffffffffffffffff021916908373ffffffffffffffffffffffffffffffffffffffff1602179055506000809054906101000a900473ffffffffffffffffffffffffffffffffffffffff1673ffffffffffffffffffffffffffffffffffffffff16600073ffffffffffffffffffffffffffffffffffffffff167f8be0079c531659141344cd1fd0a4f28419497f9722a3daafe3b4186f6b6457e060405160405180910390a361074d806100cf6000396000f3fe608060405260043610610078576000357c0100000000000000000000000000000000000000000000000000000000900463ffffffff168063715018a61461007d57806371671bf2146100945780638da5cb5b146101c25780638f32d59b14610219578063efba4f3614610248578063f2fde38b146102c3575b600080fd5b34801561008957600080fd5b50610092610314565b005b3480156100a057600080fd5b506100cd600480360360208110156100b757600080fd5b81019080803590602001909291905050506103e6565b604051808581526020018481526020018060200180602001838103835285818151815260200191508051906020019080838360005b8381101561011d578082015181840152602081019050610102565b50505050905090810190601f16801561014a5780820380516001836020036101000a031916815260200191505b50838103825284818151815260200191508051906020019080838360005b83811015610183578082015181840152602081019050610168565b50505050905090810190601f1680156101b05780820380516001836020036101000a031916815260200191505b50965050505050505060405180910390f35b3480156101ce57600080fd5b506101d7610555565b604051808273ffffffffffffffffffffffffffffffffffffffff1673ffffffffffffffffffffffffffffffffffffffff16815260200191505060405180910390f35b34801561022557600080fd5b5061022e61057e565b604051808215151515815260200191505060405180910390f35b34801561025457600080fd5b506102816004803603602081101561026b57600080fd5b81019080803590602001909291905050506105d5565b604051808273ffffffffffffffffffffffffffffffffffffffff1673ffffffffffffffffffffffffffffffffffffffff16815260200191505060405180910390f35b3480156102cf57600080fd5b50610312600480360360208110156102e657600080fd5b81019080803573ffffffffffffffffffffffffffffffffffffffff169060200190929190505050610608565b005b61031c61057e565b151561032757600080fd5b600073ffffffffffffffffffffffffffffffffffffffff166000809054906101000a900473ffffffffffffffffffffffffffffffffffffffff1673ffffffffffffffffffffffffffffffffffffffff167f8be0079c531659141344cd1fd0a4f28419497f9722a3daafe3b4186f6b6457e060405160405180910390a360008060006101000a81548173ffffffffffffffffffffffffffffffffffffffff021916908373ffffffffffffffffffffffffffffffffffffffff160217905550565b6001818154811015156103f557fe5b9060005260206000209060040201600091509050806000015490806001015490806002018054600181600116156101000203166002900480601f0160208091040260200160405190810160405280929190818152602001828054600181600116156101000203166002900480156104ad5780601f10610482576101008083540402835291602001916104ad565b820191906000526020600020905b81548152906001019060200180831161049057829003601f168201915b505050505090806003018054600181600116156101000203166002900480601f01602080910402602001604051908101604052809291908181526020018280546001816001161561010002031660029004801561054b5780601f106105205761010080835404028352916020019161054b565b820191906000526020600020905b81548152906001019060200180831161052e57829003601f168201915b5050505050905084565b60008060009054906101000a900473ffffffffffffffffffffffffffffffffffffffff16905090565b60008060009054906101000a900473ffffffffffffffffffffffffffffffffffffffff1673ffffffffffffffffffffffffffffffffffffffff163373ffffffffffffffffffffffffffffffffffffffff1614905090565b60026020528060005260406000206000915054906101000a900473ffffffffffffffffffffffffffffffffffffffff1681565b61061061057e565b151561061b57600080fd5b61062481610627565b50565b600073ffffffffffffffffffffffffffffffffffffffff168173ffffffffffffffffffffffffffffffffffffffff161415151561066357600080fd5b8073ffffffffffffffffffffffffffffffffffffffff166000809054906101000a900473ffffffffffffffffffffffffffffffffffffffff1673ffffffffffffffffffffffffffffffffffffffff167f8be0079c531659141344cd1fd0a4f28419497f9722a3daafe3b4186f6b6457e060405160405180910390a3806000806101000a81548173ffffffffffffffffffffffffffffffffffffffff021916908373ffffffffffffffffffffffffffffffffffffffff1602179055505056fea165627a7a72305820cb6e804a53076364b89f47c1c5ba52021b7f744e66fb78110ade1958421eb7e90029",
  "source": "pragma solidity >=0.4.22 <0.6.0;\nimport \"./Ownable.sol\";\nimport \"./ERC721/SchwabToken.sol\";\n\ncontract TableFactory is Ownable {\n\n    event NewTable(uint creationId, string name, string database);\n\n    struct Table {\n      uint creationId;\n      uint tableId;\n      string name;\n      string database;\n    }\n\n    Table[] public tables;\n\n    mapping (uint => address) public tableToOwner;\n    mapping (address => uint) ownerTableCount;\n\n    function _createTable(uint _tableId, string memory _name, string memory _database) internal {\n        uint creationId = tables.push(Table(uint32(now), _tableId, _name, _database)) - 1;\n        tableToOwner[creationId] = msg.sender;\n        ownerTableCount[msg.sender]++;\n        emit NewTable(creationId, _name, _database);\n    }\n\n}\n\n\ncontract Freezing is Ownable { //validate restricting users to access ERC721 authentication\n  event Freeze();\n  event Unfreeze();\n  event Freeze(address to);\n  event UnfreezeOf(address to);\n  event TransferAccessOn();\n  event TransferAccessOff();\n\n  bool public freezed = false;\n\n  mapping (address => bool) public freezeOf;\n  mapping (address => bool) public transferAccess;\n\n  modifier whenNotFreeze() {\n    require(!freezed);\n    _;\n  }\n\n  modifier whenFreeze() {\n    require(freezed);\n    _;\n  }\n\n  modifier whenNotFreezeOf(address _account) {\n    require(!freezeOf[_account]);\n    _;\n  }\n\n  modifier whenFreezeOf(address _account) {\n    require(freezeOf[_account]);\n    _;\n  }\n\n  modifier onTransferAccess(address _account) {\n      require(transferAccess[_account]);\n      _;\n  }\n\n  modifier offTransferAccess(address _account) {\n      require(!transferAccess[_account]);\n      _;\n  }\n\n  function freeze() onlyOwner whenNotFreeze public {\n    freezed = true;\n    emit Freeze();\n  }\n\n  function unfreeze() onlyOwner whenFreeze public {\n    freezed = false;\n    emit Unfreeze();\n  }\n  /*\n  function freezeOf(address _account) onlyOwner whenNotFreeze public {\n    freezeOf[_account] = true;\n    emit Freeze(_account);\n  }*/\n\n  function unfreezeOf(address _account) onlyOwner whenFreeze public  {\n    freezeOf[_account] = false;\n    emit UnfreezeOf(_account);\n  }\n\n  function transferAccessOn(address _account) onlyOwner offTransferAccess(_account) public {\n      transferAccess[_account] = true;\n      emit TransferAccessOn();\n  }\n\n  function transferAccessOff(address _account) onlyOwner onTransferAccess(_account) public {\n      transferAccess[_account] = false;\n      emit TransferAccessOff();\n  }\n\n}\n\n\n\ncontract UserAuthenticate is TableFactory, SchwabToken {\n\n  using SafeMath for uint256;\n\n  mapping (uint => address) tableApprovals;\n\n  modifier onlyOwnerOf(uint _creationId) { //maps to that particular token creation\n    require(msg.sender == tableToOwner[_creationId]);\n    _;\n  }\n\n\n  function balanceOf(address _owner) public view returns (uint256) {\n    return ownerTableCount[_owner]; //check how many tables user has access to\n  }\n\n  function ownerOf(uint256 _tokenId) public view returns (address) {\n    return tableToOwner[_tokenId]; //check owner of certain token\n  }\n\n  function _transfer(address _from, address _to, uint256 _tokenId) private { // basically transfer 721 token\n    ownerTableCount[_to] = ownerTableCount[_to].add(1);\n    ownerTableCount[msg.sender] = ownerTableCount[msg.sender].sub(1);\n    tableToOwner[_tokenId] = _to;\n    emit Transfer(_from, _to, _tokenId);\n  }\n\n  function transferFrom(address _from, address _to, uint256 _tokenId) public { //sends the token to the address (basically giving access)\n    require (tableToOwner[_tokenId] == msg.sender || tableApprovals[_tokenId] == msg.sender);\n    _transfer(_from, _to, _tokenId);\n  }\n\n\n/* Don't need for a private network\n  function approve(address _approved, uint256 _tokenId) public onlyOwnerOf(_tokenId) { // approve token access\n    tableApprovals[_tokenId] = _approved;\n    emit Approval(msg.sender, _approved, _tokenId);\n  }\n*/\n\n}\n",
  "sourcePath": "/Users/dohyunshin/Projects/UTProjects/schwack-end/smart_contracts/contracts/UserAuthenticate.sol",
  "compiler": {
    "name": "solc",
    "version": "0.5.0+commit.1d4f565a.Emscripten.clang"
  },
  "schemaVersion": "3.0.1",
  "updatedAt": "2019-01-26T05:38:41.159Z",
  "devdoc": {
    "methods": {
      "isOwner()": {
        "return": "true if `msg.sender` is the owner of the contract."
      },
      "owner()": {
        "return": "the address of the owner."
      },
      "renounceOwnership()": {
        "details": "Allows the current owner to relinquish control of the contract."
      },
      "transferOwnership(address)": {
        "details": "Allows the current owner to transfer control of the contract to a newOwner.",
        "params": {
          "newOwner": "The address to transfer ownership to."
        }
      }
    }
  },
  "userdoc": {
    "methods": {
      "renounceOwnership()": {
        "notice": "Renouncing to ownership will leave the contract without an owner. It will not be possible to call the functions with the `onlyOwner` modifier anymore."
      }
    }
  }
}