{
  "contractName": "TableFactory",
  "abi": [
    {
      "constant": false,
      "inputs": [],
      "name": "renounceOwnership",
      "outputs": [],
      "payable": false,
      "stateMutability": "nonpayable",
      "type": "function"
    },
    {
      "constant": true,
      "inputs": [
        {
          "name": "",
          "type": "uint256"
        }
      ],
      "name": "tables",
      "outputs": [
        {
          "name": "creationId",
          "type": "uint256"
        },
        {
          "name": "tableId",
          "type": "uint256"
        },
        {
          "name": "name",
          "type": "string"
        },
        {
          "name": "database",
          "type": "string"
        }
      ],
      "payable": false,
      "stateMutability": "view",
      "type": "function"
    },
    {
      "constant": true,
      "inputs": [],
      "name": "owner",
      "outputs": [
        {
          "name": "",
          "type": "address"
        }
      ],
      "payable": false,
      "stateMutability": "view",
      "type": "function"
    },
    {
      "constant": true,
      "inputs": [],
      "name": "isOwner",
      "outputs": [
        {
          "name": "",
          "type": "bool"
        }
      ],
      "payable": false,
      "stateMutability": "view",
      "type": "function"
    },
    {
      "constant": true,
      "inputs": [
        {
          "name": "",
          "type": "uint256"
        }
      ],
      "name": "tableToOwner",
      "outputs": [
        {
          "name": "",
          "type": "address"
        }
      ],
      "payable": false,
      "stateMutability": "view",
      "type": "function"
    },
    {
      "constant": false,
      "inputs": [
        {
          "name": "newOwner",
          "type": "address"
        }
      ],
      "name": "transferOwnership",
      "outputs": [],
      "payable": false,
      "stateMutability": "nonpayable",
      "type": "function"
    },
    {
      "anonymous": false,
      "inputs": [
        {
          "indexed": false,
          "name": "creationId",
          "type": "uint256"
        },
        {
          "indexed": false,
          "name": "name",
          "type": "string"
        },
        {
          "indexed": false,
          "name": "database",
          "type": "string"
        }
      ],
      "name": "NewTable",
      "type": "event"
    },
    {
      "anonymous": false,
      "inputs": [
        {
          "indexed": true,
          "name": "previousOwner",
          "type": "address"
        },
        {
          "indexed": true,
          "name": "newOwner",
          "type": "address"
        }
      ],
      "name": "OwnershipTransferred",
      "type": "event"
    },
    {
      "constant": false,
      "inputs": [
        {
          "name": "_tableId",
          "type": "uint256"
        },
        {
          "name": "_name",
          "type": "string"
        },
        {
          "name": "_database",
          "type": "string"
        }
      ],
      "name": "createTable",
      "outputs": [],
      "payable": false,
      "stateMutability": "nonpayable",
      "type": "function"
    }
  ],
  "bytecode": "0x6080604052336000806101000a81548173ffffffffffffffffffffffffffffffffffffffff021916908373ffffffffffffffffffffffffffffffffffffffff1602179055506000809054906101000a900473ffffffffffffffffffffffffffffffffffffffff1673ffffffffffffffffffffffffffffffffffffffff16600073ffffffffffffffffffffffffffffffffffffffff167f8be0079c531659141344cd1fd0a4f28419497f9722a3daafe3b4186f6b6457e060405160405180910390a3610bdc806100cf6000396000f3fe608060405260043610610083576000357c0100000000000000000000000000000000000000000000000000000000900463ffffffff16806351d7181614610088578063715018a6146101f157806371671bf2146102085780638da5cb5b146103365780638f32d59b1461038d578063efba4f36146103bc578063f2fde38b14610437575b600080fd5b34801561009457600080fd5b506101ef600480360360608110156100ab57600080fd5b8101908080359060200190929190803590602001906401000000008111156100d257600080fd5b8201836020820111156100e457600080fd5b8035906020019184600183028401116401000000008311171561010657600080fd5b91908080601f016020809104026020016040519081016040528093929190818152602001838380828437600081840152601f19601f8201169050808301925050505050505091929192908035906020019064010000000081111561016957600080fd5b82018360208201111561017b57600080fd5b8035906020019184600183028401116401000000008311171561019d57600080fd5b91908080601f016020809104026020016040519081016040528093929190818152602001838380828437600081840152601f19601f820116905080830192505050505050509192919290505050610488565b005b3480156101fd57600080fd5b506102066106fe565b005b34801561021457600080fd5b506102416004803603602081101561022b57600080fd5b81019080803590602001909291905050506107d0565b604051808581526020018481526020018060200180602001838103835285818151815260200191508051906020019080838360005b83811015610291578082015181840152602081019050610276565b50505050905090810190601f1680156102be5780820380516001836020036101000a031916815260200191505b50838103825284818151815260200191508051906020019080838360005b838110156102f75780820151818401526020810190506102dc565b50505050905090810190601f1680156103245780820380516001836020036101000a031916815260200191505b50965050505050505060405180910390f35b34801561034257600080fd5b5061034b61093f565b604051808273ffffffffffffffffffffffffffffffffffffffff1673ffffffffffffffffffffffffffffffffffffffff16815260200191505060405180910390f35b34801561039957600080fd5b506103a2610968565b604051808215151515815260200191505060405180910390f35b3480156103c857600080fd5b506103f5600480360360208110156103df57600080fd5b81019080803590602001909291905050506109bf565b604051808273ffffffffffffffffffffffffffffffffffffffff1673ffffffffffffffffffffffffffffffffffffffff16815260200191505060405180910390f35b34801561044357600080fd5b506104866004803603602081101561045a57600080fd5b81019080803573ffffffffffffffffffffffffffffffffffffffff1690602001909291905050506109f2565b005b610490610968565b151561049b57600080fd5b60006001806080604051908101604052804263ffffffff168152602001878152602001868152602001858152509080600181540180825580915050906001820390600052602060002090600402016000909192909190915060008201518160000155602082015181600101556040820151816002019080519060200190610523929190610b0b565b506060820151816003019080519060200190610540929190610b0b565b505050039050336002600083815260200190815260200160002060006101000a81548173ffffffffffffffffffffffffffffffffffffffff021916908373ffffffffffffffffffffffffffffffffffffffff160217905550600360003373ffffffffffffffffffffffffffffffffffffffff1673ffffffffffffffffffffffffffffffffffffffff168152602001908152602001600020600081548092919060010191905055507f047e617a8af48c14ec140c1e3b1f1920821ca1675d0c19756be36bfbe772b8ca818484604051808481526020018060200180602001838103835285818151815260200191508051906020019080838360005b8381101561065557808201518184015260208101905061063a565b50505050905090810190601f1680156106825780820380516001836020036101000a031916815260200191505b50838103825284818151815260200191508051906020019080838360005b838110156106bb5780820151818401526020810190506106a0565b50505050905090810190601f1680156106e85780820380516001836020036101000a031916815260200191505b509550505050505060405180910390a150505050565b610706610968565b151561071157600080fd5b600073ffffffffffffffffffffffffffffffffffffffff166000809054906101000a900473ffffffffffffffffffffffffffffffffffffffff1673ffffffffffffffffffffffffffffffffffffffff167f8be0079c531659141344cd1fd0a4f28419497f9722a3daafe3b4186f6b6457e060405160405180910390a360008060006101000a81548173ffffffffffffffffffffffffffffffffffffffff021916908373ffffffffffffffffffffffffffffffffffffffff160217905550565b6001818154811015156107df57fe5b9060005260206000209060040201600091509050806000015490806001015490806002018054600181600116156101000203166002900480601f0160208091040260200160405190810160405280929190818152602001828054600181600116156101000203166002900480156108975780601f1061086c57610100808354040283529160200191610897565b820191906000526020600020905b81548152906001019060200180831161087a57829003601f168201915b505050505090806003018054600181600116156101000203166002900480601f0160208091040260200160405190810160405280929190818152602001828054600181600116156101000203166002900480156109355780601f1061090a57610100808354040283529160200191610935565b820191906000526020600020905b81548152906001019060200180831161091857829003601f168201915b5050505050905084565b60008060009054906101000a900473ffffffffffffffffffffffffffffffffffffffff16905090565b60008060009054906101000a900473ffffffffffffffffffffffffffffffffffffffff1673ffffffffffffffffffffffffffffffffffffffff163373ffffffffffffffffffffffffffffffffffffffff1614905090565b60026020528060005260406000206000915054906101000a900473ffffffffffffffffffffffffffffffffffffffff1681565b6109fa610968565b1515610a0557600080fd5b610a0e81610a11565b50565b600073ffffffffffffffffffffffffffffffffffffffff168173ffffffffffffffffffffffffffffffffffffffff1614151515610a4d57600080fd5b8073ffffffffffffffffffffffffffffffffffffffff166000809054906101000a900473ffffffffffffffffffffffffffffffffffffffff1673ffffffffffffffffffffffffffffffffffffffff167f8be0079c531659141344cd1fd0a4f28419497f9722a3daafe3b4186f6b6457e060405160405180910390a3806000806101000a81548173ffffffffffffffffffffffffffffffffffffffff021916908373ffffffffffffffffffffffffffffffffffffffff16021790555050565b828054600181600116156101000203166002900490600052602060002090601f016020900481019282601f10610b4c57805160ff1916838001178555610b7a565b82800160010185558215610b7a579182015b82811115610b79578251825591602001919060010190610b5e565b5b509050610b879190610b8b565b5090565b610bad91905b80821115610ba9576000816000905550600101610b91565b5090565b9056fea165627a7a72305820f820b971363b8b650001725ee85d4102606587729d22a5ab805c342de5605ac90029",
  "source": "pragma solidity >=0.4.22 <0.6.0;\nimport \"./Ownable.sol\";\nimport \"./ERC721/SchwabToken.sol\";\n\ncontract TableFactory is Ownable {\n\n    event NewTable(uint creationId, string name, string database);\n\n    struct Table {\n      uint creationId;\n      uint tableId;\n      string name;\n      string database;\n    }\n\n    Table[] public tables;\n\n    mapping (uint => address) public tableToOwner;\n    mapping (address => uint) ownerTableCount;\n\n    function createTable(uint _tableId, string memory _name, string memory _database) onlyOwner public {\n        uint creationId = tables.push(Table(uint32(now), _tableId, _name, _database)) - 1;\n        tableToOwner[creationId] = msg.sender;\n        ownerTableCount[msg.sender]++;\n        emit NewTable(creationId, _name, _database);\n    }\n\n}\n\n\ncontract Freezing is Ownable { //validate restricting users to access ERC721 authentication\n  event Freeze();\n  event Unfreeze();\n  event Freeze(address to);\n  event UnfreezeOf(address to);\n  event TransferAccessOn();\n  event TransferAccessOff();\n\n  bool public freezed = false;\n\n  mapping (address => bool) public freezeOf;\n  mapping (address => bool) public transferAccess;\n\n  modifier whenNotFreeze() {\n    require(!freezed);\n    _;\n  }\n\n  modifier whenFreeze() {\n    require(freezed);\n    _;\n  }\n\n  modifier whenNotFreezeOf(address _account) {\n    require(!freezeOf[_account]);\n    _;\n  }\n\n  modifier whenFreezeOf(address _account) {\n    require(freezeOf[_account]);\n    _;\n  }\n\n  modifier onTransferAccess(address _account) {\n      require(transferAccess[_account]);\n      _;\n  }\n\n  modifier offTransferAccess(address _account) {\n      require(!transferAccess[_account]);\n      _;\n  }\n\n  function freeze() onlyOwner whenNotFreeze public {\n    freezed = true;\n    emit Freeze();\n  }\n\n  function unfreeze() onlyOwner whenFreeze public {\n    freezed = false;\n    emit Unfreeze();\n  }\n  /*\n  function freezeOf(address _account) onlyOwner whenNotFreeze public {\n    freezeOf[_account] = true;\n    emit Freeze(_account);\n  }*/\n\n  function unfreezeOf(address _account) onlyOwner whenFreeze public  {\n    freezeOf[_account] = false;\n    emit UnfreezeOf(_account);\n  }\n\n  function transferAccessOn(address _account) onlyOwner offTransferAccess(_account) public {\n      transferAccess[_account] = true;\n      emit TransferAccessOn();\n  }\n\n  function transferAccessOff(address _account) onlyOwner onTransferAccess(_account) public {\n      transferAccess[_account] = false;\n      emit TransferAccessOff();\n  }\n\n}\n\n\n\ncontract UserAuthenticate is TableFactory, SchwabToken, Freezing {\n\n  using SafeMath for uint256;\n\n  mapping (uint => address) tableApprovals;\n\n  modifier onlyOwnerOf(uint _creationId) { //maps to that particular token creation\n    require(msg.sender == tableToOwner[_creationId]);\n    _;\n  }\n\n  function createTableToken(uint _tableId, string memory _name, string memory _database) onlyOwner public {\n    TableFactory.createTable(_tableId, _name, _database);\n  }\n\n\n  function balanceOf(address _owner) public view returns (uint256) {\n    return ownerTableCount[_owner]; //check how many tables user has access to\n  }\n\n  function ownerOf(uint256 _tokenId) public view returns (address) {\n    return tableToOwner[_tokenId]; //check owner of certain token\n  }\n\n  function _transfer(address _from, address _to, uint256 _tokenId) private { // basically transfer 721 token\n    ownerTableCount[_to] = ownerTableCount[_to].add(1);\n    ownerTableCount[msg.sender] = ownerTableCount[msg.sender].sub(1);\n    tableToOwner[_tokenId] = _to;\n    emit Transfer(_from, _to, _tokenId);\n  }\n\n  function transferFrom(address _from, address _to, uint256 _tokenId) public { //sends the token to the address (basically giving access)\n    require (tableToOwner[_tokenId] == msg.sender || tableApprovals[_tokenId] == msg.sender);\n    _transfer(_from, _to, _tokenId);\n  }\n\n\n/* Don't need for a private network\n  function approve(address _approved, uint256 _tokenId) public onlyOwnerOf(_tokenId) { // approve token access\n    tableApprovals[_tokenId] = _approved;\n    emit Approval(msg.sender, _approved, _tokenId);\n  }\n*/\n\n}\n",
  "sourcePath": "/Users/dohyunshin/Projects/UTProjects/schwack-end/smart_contracts/contracts/UserAuthenticate.sol",
  "compiler": {
    "name": "solc",
    "version": "0.5.0+commit.1d4f565a.Emscripten.clang"
  },
  "schemaVersion": "3.0.1",
  "updatedAt": "2019-01-26T07:13:41.489Z",
  "devdoc": {
    "methods": {
      "isOwner()": {
        "return": "true if `msg.sender` is the owner of the contract."
      },
      "owner()": {
        "return": "the address of the owner."
      },
      "renounceOwnership()": {
        "details": "Allows the current owner to relinquish control of the contract."
      },
      "transferOwnership(address)": {
        "details": "Allows the current owner to transfer control of the contract to a newOwner.",
        "params": {
          "newOwner": "The address to transfer ownership to."
        }
      }
    }
  },
  "userdoc": {
    "methods": {
      "renounceOwnership()": {
        "notice": "Renouncing to ownership will leave the contract without an owner. It will not be possible to call the functions with the `onlyOwner` modifier anymore."
      }
    }
  }
}